S0160000415454494E59343136584E414E4F2E7372656316
S113000019C028C027C082C19FC124C023C0BAC15F
S113001021C020C01FC01EC01DC01CC01BC01AC0F0
S113002019C018C017C016C015C014C013C012C020
S113003011C010C011241FBECFEFCDBFDFE3DEBF60
S11300402FE3A0E0BFE301C01D92A730B207E1F7A0
S1130050D1D10AC2D5CFE0E2F4E081E0818392E01D
S11300609283E0E1F8E09CE1908399E0968393E049
S11300709383858380EC858388E084830895CF937C
S1130080DF9300D01F92CDB7DEB7880F862B9091F7
S113009015089370933009F44CC024E030E02A83AF
S11300A03B832A813B81232B09F445C0E0E1F8E03E
S11300B04FEF94819B7F948387836115710589F049
S11300C0498395819923ECF099819923D1F0998101
S11300D09150998395819923A4F099819111F7CF37
S11300E010C04983958196FD0CC09981992349F0EC
S11300F0998191509983958196FD03C099819111BD
S1130100F7CF958193FF0CC02A813B81215031099F
S11301102A833B832A813B81232B59F681E00EC03D
S11301208091150882FD09C080911508829581701F
S113013005C081E003C081E001C081E02396CDBF0A
S1130140DEBFDF91CF910895CF93DF931F92CDB798
S1130150DEB79091150891FF34C09FEF9983909179
S1130160150895FD0EC09981992359F0E0E1F8E056
S1130170998191509983958195FD03C0998191113D
S1130180F7CF99819923F9F0E0E1F8E080878FEFC8
S11301908983858186FD0CC08981882349F0898102
S11301A081508983858186FD03C089818111F7CFC0
S11301B08091150882FD09C080911508829581708F
S11301C005C081E003C081E001C081E00F90DF91B0
S11301D0CF910895CF93DF931F92CDB7DEB78FEF02
S11301E089838091150885FD0EC08981882359F083
S11301F0E0E1F8E0898181508983858185FD03C030
S113020089818111F7CF89818823F1F0E0E1F8E059
S113021083E084838FEF8983858185FD0CC0898188
S1130220882349F0898181508983858185FD03C0B4
S113023089818111F7CF8091150882FF07C084E07E
S11302408093150880E003C081E001C080E00F9036
S1130250DF91CF9108951F93CF93DF939091150869
S11302609370933019F1142FC72FD62F60E070E0EC
S113027006DF882319F0AEDFC1E019C08C2F64DFDC
S1130280882319F0A7DFC1E012C08D2F5DDF88231A
S113029019F0A0DFC1E00BC0812F56DFC82F8823DF
S11302A019F098DFC1E003C095DF01C0C5E08C2FD1
S11302B0DF91CF911F910895DF92EF92FF920F93F8
S11302C01F93CF93DF9330E021153105B9F07A0104
S11302D0D82E8A01C62FD0E0E20EF31EF801419118
S11302E08F01BE018D2DB7DF83EC99E00197F1F703
S11302F000C0000021960E151F0581F7DF91CF91F4
S11303001F910F91FF90EF90DF9008951F920F922D
S11303100FB60F9211248F93EF93FF9380910904EA
S113032086FF0AC0E0E0F4E08185807481878091D3
S1130330023F81608093023FFF91EF918F910F9074
S11303400FBE0F901F9018951F920F920FB60F9229
S113035011248F93EF93FF938091290482FF0AC0A5
S1130360E0E2F4E08185847081878091023F8260BD
S11303708093023FFF91EF918F910F900FBE0F90EA
S11303801F9018951F920F920FB60F9211248F93FE
S11303909F9381E0809353018091003F9091013FAE
S11303A001968093003F9093013F9F918F910F900E
S11303B00FBE0F901F901895E0E5F0E080818460F7
S11303C080838081816080830895E0E0F4E084810B
S11303D08068848380818068808380E482838689C6
S11303E08B60868BE0E2F4E084E0828382898A6019
S11303F0828B0895EADF2FDE10D0DEDFE0E0F4E048
S113040084818F77848384818068848384818F77D7
S11304108483848180688483F3CFCF93DF9300D077
S113042000D0CDB7DEB740E060E078E087E513DFC9
S113043043E060E179E087E50EDF19821A821B82CE
S11304401C8224E0AE014F5F5F4F60E087E534DF3C
S113045024E043E05FE360E083E52EDF2496CDBF34
S10F0460DEBFDF91CF910895F894FFCF28
S9030000FC
